:100000000C9438000C945F000C945F000C945F001B
:100010000C945F000C945F000C945F000C945F00E4
:100020000C945F000C945F000C945F000C945F00D4
:100030000C945F000C945F000C945F000C945F00C4
:100040000C945F000C945F000C945F000C945F00B4
:100050000C945F000C945F000C945F000C945F00A4
:100060000C945F000C945F000C945F000C945F0094
:1000700011241FBECFEFD0E1DEBFCDBFF894A8950D
:1000800084B7877F84BFE0E6F0E080818861808369
:100090001082789411E0A0E0B1E0E0ECF9E002C059
:1000A00005900D92A236B107D9F711E0A2E6B1E0B2
:1000B00001C01D92A037B107E1F70C9441010C94E7
:1000C00000009C0106C080EC92E10197F1F72150FD
:1000D000304021153105B9F7089580916E01909156
:1000E0006F01863091053CF010926F0110926E0105
:1000F00081E090E00895019690936F0180936E01E6
:1001000080E090E00895CF92DF92EF92FF920F93FC
:100110001F93CF93DF93CDB7DEB764970FB6F894F4
:10012000DEBF0FBECDBF8091660190916701892B24
:1001300019F080E091E002C08BE091E00E94610143
:1001400090EAC92E90E0D92E83E3E82E81E0F82EC4
:100150008E010F5F1F4FD0926701C09266010E940F
:100160006D00892BF1F480916201909163010196F9
:10017000909363018093620101979F938F93FF9205
:10018000EF921F930F930E947F01C8010E946101AB
:100190008DB79EB706960FB6F8949EBF0FBE8DBF63
:1001A000DACF80E090E064960FB6F894DEBF0FBE21
:1001B000CDBFDF91CF911F910F91FF90EF90DF9016
:1001C000CF900895CF92DF92EF92FF920F931F93FB
:1001D000CF93DF93CDB7DEB764970FB6F894DEBF49
:1001E0000FBECDBF80916C0190916D01892B19F0EC
:1001F00080E091E002C08BE091E00E9461013FEF5E
:10020000C32E30E0D32E2AE4E22E21E0F22E8E011E
:100210000F5F1F4FD0926D01C0926C010E946D0064
:10022000892BF1F480916801909169010196909376
:1002300069018093680101979F938F93FF92EF92DA
:100240001F930F930E947F01C8010E9461018DB727
:100250009EB706960FB6F8949EBF0FBE8DBFDACF3D
:1002600080E090E064960FB6F894DEBF0FBECDBF7D
:10027000DF91CF911F910F91FF90EF90DF90CF9082
:100280000895CFEFD0E1DEBFCDBF0E944C010E94A8
:10029000E2000E948300FBCF8FE18093C4001092A4
:1002A000C500E1ECF0E08081886080838EE080937F
:1002B000C20008958093C6008091C00085FFFCCFE6
:1002C0000895FC0107C08093C6008091C00085FF9F
:1002D000FCCF319680818823B1F70895FC0108C0D6
:1002E00080818093C6008091C00085FFFCCF31964D
:1002F000615070408FEF6F3F780791F708950F932B
:100300001F93CF93DF93CDB7DEB760970FB6F89406
:10031000DEBF0FBECDBF0F89188D86E08E831C8394
:100320000B838FEF9FE798878F83AE01455E5F4F0A
:100330005A834983698D7A8DCE0103960E94B1015B
:1003400029853A85020F131FF801108260960FB6B7
:10035000F894DEBF0FBECDBFDF91CF911F910F91FB
:1003600008952F923F924F925F926F927F928F9259
:100370009F92AF92BF92CF92DF92EF92FF920F9334
:100380001F93CF93DF93CDB7DEB767970FB6F8947F
:10039000DEBF0FBECDBF8824992454012C017C8B75
:1003A0006B8B3A01FC0117821682838181FD03C0A9
:1003B0008FEF9FEF7EC2CC24DD249E012F5F3F4F45
:1003C0003F8B2E8B65C2C0FE48C2832D80538A307E
:1003D000D8F430E3331641F48D85882329F4C3FC27
:1003E00003C0E0E0F1E073C08AE0FD85F802C001DF
:1003F00011248053830D8D8787FF02C02FE72D873F
:10040000C3FC40C22D843EC2960128703070C3FEEA
:1004100005C08D85882311F491E09D87E7E6E315FB
:100420006CF1F5E63F160CF068C083E5381609F468
:1004300089C08315BCF09BE2391609F442C09315BC
:100440004CF0E0E23E1609F440C0F3E23F1609F03A
:10045000FCC143C02DE23216E9F13EE2331609F049
:10046000F4C140C083E6381609F44DC083150CF47E
:1004700081C098E5391609F0E8C120C0E0E73E16D2
:1004800009F4A2C0E3155CF0FCE63F1689F12FE603
:10049000321689F039E6331609F0D7C16BC085E70B
:1004A000381609F499C098E7391641F0E3E73E168B
:1004B00009F0CBC130C0F8E0F88B8EC020E1288B6A
:1004C0008BC080E190E0C82AD92AE0E2F0E0CE2A91
:1004D000DF2AD8C120E830E00DC080E490E0C82ACF
:1004E000D92AD0C1E8E0F0E0CE2ADF2A1D86CAC1B1
:1004F00024E030E0C22AD32AC5C13FE3832E2A94E8
:1005000023E6322E30C1F30180802A9422E030E0CD
:10051000620E731E28C1F301A081B1814D01232B0E
:1005200049F0FD856F2F772767FD7095CD010E94FB
:10053000860418C0FD0101900020E9F73197EA1BFD
:10054000E88B11C0F301808191814C01232B41F094
:10055000FD856F2F772767FD70950E947B0402C091
:100560000E947204888B22E030E0620E731E38898C
:10057000231AF9C0C2FE08C0F30180819181A281D3
:10058000B38124E030E009C0F30180819181AA2782
:1005900097FDA095BA2F22E030E0620E731E4C0149
:1005A0005D01B7FF0CC082E090E0C82AD92AB09460
:1005B000A09490948094811C911CA11CB11CEFEB21
:1005C000FFEFCE22DF2221C020E430E0C22AD32A6E
:1005D00098E7392E30E1388BC2FE08C0F3018081E4
:1005E0009181A281B38124E030E007C0F3018081D2
:1005F0009181AA27BB2722E030E0620E731E4C01D6
:100600005D018FEC9FEFC822D92285017401FE01A4
:100610003196FF87EE87F8898F2E9924AA24BB2470
:10062000232D21522D8BC801B701A50194010E94F1
:10063000BE046A301CF03D89630F01C0605DEE8529
:10064000FF856193FF87EE87C801B701A50194017B
:100650000E94BE0479018A01211531054105510529
:1006600011F78824992454014E85FE894F1B842E4E
:10067000C60182739070892B09F02A94C6FE07C0C8
:100680002889203111F482E001C081E0281AC3FEDC
:1006900012C08D85282F332727FD3095842F992769
:1006A000821793072CF0E7EFFFEFCE22DF2203C083
:1006B000FD85F41BFD87860108701070C3FE03C022
:1006C0002D85221A01C0241AC60180789170892BC9
:1006D00031F00AC0B20180E290E00E9491042A94B5
:1006E000822D8F5F1816B4F3C1FE04C0B2018DE2F3
:1006F00090E00BC0C4FE04C0B2018BE290E005C0E4
:10070000C5FE05C0B20180E290E00E949104C6FEE1
:100710000FC0B20180E390E00E949104388930312B
:1007200039F4B201832D992787FD90950E94910499
:10073000D0FC06C00AC0B20180E390E00E949104A0
:100740002A94822D8F5F1816B4F3012B31F40BC05D
:10075000B20180E390E00E9491048D8581508D87E5
:100760008F5F1816ACF3F601E078F070FA8BE98B26
:10077000C7FE06C00AC0B20180E290E00E94910468
:100780002A94822D8F5F1816B4F3F3E63F1641F4D6
:10079000B201882D992787FD90950E94910445C04C
:1007A00023E73216B1F464017401188909C0F70116
:1007B00081917F01B201992787FD90950E94910454
:1007C0001150A8F74601F8898F0E911C2FEF288B46
:1007D0002CC033E5331619F00E851F851FC0640148
:1007E0008401F88808C0F8018491B20199270E9419
:1007F00091040F5F1F4FFA94FFEFFF16A1F7460118
:100800002889820E911CF88B10C0F80182918F010B
:10081000B201992787FD90950E9491042E893F8906
:100820000217130791F71F870E8789899A89892BE9
:1008300031F426C0B20180E290E00E9491042A9433
:10084000822D8F5F1816B4F31BC0B201832D992738
:1008500087FD90950E94910413C095E2391641F4EA
:10086000EAE0E88B22241D8681E0C82ED12C0AC044
:10087000B201832D992787FD90950E94910402C0B3
:10088000CC24DD242B893C892F5F3F4F3C8B2B8B65
:10089000F201838183FF04C0EB89FC89349003C09B
:1008A000EB89FC893080332009F08DCDF2018681FF
:1008B000978167960FB6F894DEBF0FBECDBFDF916C
:1008C000CF911F910F91FF90EF90DF90CF90BF904D
:1008D000AF909F908F907F906F905F904F903F90E0
:1008E0002F900895FC0105900020E9F780959095E0
:1008F0008E0F9F1F0895FC010590615070400110FC
:10090000D8F7809590958E0F9F1F0895FC01615038
:10091000704001900110D8F7809590958E0F9F1F21
:1009200008950F931F93CF93DF938C01EB018B817D
:10093000992781FF1BC082FF0DC02E813F818C81D2
:100940009D812817390764F4E881F9810193F983BF
:10095000E88306C0E885F985802F0995892B31F455
:100960008E819F8101969F838E8302C00FEF1FEFC0
:10097000C801DF91CF911F910F910895A1E21A2E26
:10098000AA1BBB1BFD010DC0AA1FBB1FEE1FFF1F33
:10099000A217B307E407F50720F0A21BB30BE40B83
:1009A000F50B661F771F881F991F1A9469F76095CA
:1009B0007095809590959B01AC01BD01CF01089584
:1009C000526573756D696E670D0A00492073686F13
:1009D000756C64206E6F74206765742063616C6C45
:1009E0006564207768656E20726573756D696E67E2
:1009F0000D0A0068656C6C6F2066726F6D206675FD
:100A00006E63323A2025640D0A0068656C6C6F20B5
:100A100066726F6D2066756E63313A2025640D0A2B
:020A20000000D4
:00000001FF
